:020000041000EA
:10100000500500201D100010000000009510001079
:101010000018040000010000000000801049114A7F
:10102000114B00F016F8114880471149114A124B34
:1010300000F00FF81149124A124B00F00AF8124959
:10104000124A0020521A02DD043A8850FCDC104893
:1010500080479B1A03DD043BC858D050FBDC704727
:10106000041200100C00002050010020AD110010EF
:1010700048130010500500205005002048130010B0
:101080005005002050050020500500205805002084
:10109000B9110010FEE700000B0089088900401814
:1010A00003211940FC23C9008B408A4010B5046914
:1010B0009C43046103691A43026110BD10B5EFF34C
:1010C000108272B60424044B5C6318625962986AF9
:1010D00082F3108810BDC046000003400121024A7F
:1010E000936E8B4393667047000001400048704741
:1010F000002D3101FF201B4A70B513681A4C1B0AE2
:101100000340236015D0C0261568D169B6000902D6
:1011100028403140154D01432960D26992050FD412
:101120009B0259181248FFF7C9FF124B00011860C3
:1011300005E0D3699B0510D40E4B0F4A1A6070BDB1
:10114000FFF7D4FF21682B688902C9188001FFF7D7
:10115000B5FF084B00011860F1E7FFF7C7FF054B2B
:101160001860ECE700030140540500205005002002
:1011700000001BB7FC3F0020006CDC02C0230749C5
:1011800010B54B62064B0748DA690240DA61064A3D
:101190001A60C3234B62FFF7ADFF10BD0000014092
:1011A00000030140FFFDFFFF0001F13F10B5FFF715
:1011B00095FFFFF7E3FF10BD80220021094810B51D
:1011C000FFF76AFFC021084A084B09485360036AC9
:1011D00009061B021B0A0B430362002393600733BB
:1011E0001360FEE70004044010E000E0FF23F40079
:1011F00000ED00E0014B024A5A60704700040440D1
:0412000001000100E8
:101204002C4800470000000000000000000000001F
:1012140000000000000000000000000000000000CA
:101224002548004700000000000000002348004754
:1012340023480047234800472348004723480047E2
:1012440023480047234800472348004723480047D2
:1012540023480047234800472348004723480047C2
:1012640023480047234800472348004723480047B2
:1012740023480047234800472348004723480047A2
:101284002348004723480047234800472348004792
:101294002348004723480047234800472348004782
:1012A4002348004723480047234800472348004772
:1012B4002348004795100010951000109510001059
:1012C400F5110010951000109510001095100010E5
:1012D4009510001095100010951000109510001036
:1012E4009510001095100010951000109510001026
:1012F4009510001095100010951000109510001016
:101304009510001095100010951000109510001005
:1013140095100010951000109510001095100010F5
:1013240095100010951000109510001095100010E5
:1013340095100010951000109510001095100010D5
:0413440095100010F0
:040000051000101DBA
:00000001FF
